:060000000A128A110C280F
:10000800FE00030EF5000A08F6000A128A15E32816
:100018000A128A110F28F701F801F901FA0183166B
:100028000313BD01BE01BF01C001C101C201C3016B
:10003800C401C501C601C70183010A128A15642CCF
:10004800831203136508803983160313A000200860
:1000580083120313EA00650883160313A000200720
:10006800A100210883120313EC00E41F3C283D285B
:100078003E286C146C0803194228432853286C0A3C
:10008800031D4728482850280030E5000030E400C8
:100098000030E3000030E200E417E5015B2800309F
:1000A800E5000030E4000030E3000030E2006908B9
:1000B800803983160313A000200883120313EB0072
:1000C8006B086A06031969286A286B286A17690881
:1000D80083160313A0002007A1002108831203132D
:1000E800EB00E81F782879287A286B146B08031925
:1000F8007E287F288F286B0A031D832884288C2854
:100108000030E9000030E8000030E7000030E60089
:10011800E817E90197280030E9000030E8000030CE
:10012800E7000030E6006C086B0203189C289D2845
:1001380021296A1FA028A128A92880308316031323
:10014800A000200883120313EA066C088316031321
:10015800A000200883120313ED006B088316031315
:10016800A000200883120313EC006D088316031304
:10017800A000200883120313EB0062088316031300
:10018800A000200883120313ED00660883160313EA
:10019800A000200883120313E2006D0883160313DE
:1001A800A000200883120313E600630883160313D4
:1001B800A000200883120313ED00670883160313B9
:1001C800A000200883120313E3006D0883160313AD
:1001D800A000200883120313E700640883160313A2
:1001E800A000200883120313ED0068088316031388
:1001F800A000200883120313E4006D08831603137C
:10020800A000200883120313E8006508831603136F
:10021800A000200883120313ED0069088316031356
:10022800A000200883120313E5006D08831603134A
:10023800A000200883120313E900ED016B08831660
:100248000313A000A1012108A300831203136C0863
:10025800831603132002A200031CA3032308803A79
:10026800FF0080307F02031D3B291A302202031C45
:100278003E293F2990298312031365086404630407
:100288006204031D48294A2901304B29003083168E
:100298000313A000200883120313ED000030E500CB
:1002A8000030E4000030E3000030E2006B08831601
:1002B8000313A000200883120313EC0098296D1C77
:1002C8006629672974296D0883160313A000031093
:1002D800200C0138A100210883120313ED007629B0
:1002E8000310ED0C621C79297A297B29ED1701305E
:1002F80083160313A00083120313650DE50CE40CA9
:10030800E30CE20C83160313A00B7F290130A00035
:10031800200883120313EC07831203136B086C0283
:10032800031C9729982963296A1B9B299C29F3296F
:100338006C08031DA029A129AA290030E500003076
:10034800E4000030E3000030E200892B6608E20791
:10035800670803110318013E0319B329E307680866
:1003680003110318013E0319BA29E40769080311A8
:100378000318013E0319C129E507651CC429C529CD
:10038800E72A6D1CC829C929D6296D0883160313C5
:10039800A0000310200C0138A100210883120313C8
:1003A800ED00D8290310ED0C621CDB29DC29DD29BE
:1003B800ED17013083160313A00083120313650D94
:1003C800E50CE40CE30CE20C83160313A00BE12903
:1003D8000130A000200883120313EC07E72A650800
:1003E800803AFF006908803A7F02031D052A6808E1
:1003F8006402031D052A67086302031D052A6608AF
:1004080062020318082A092A992AFF30831603135F
:10041800A000FF30A100FF30A200FF30A30083122C
:100428000313660883160313A400831203136708D3
:1004380083160313A5008312031368088316031396
:10044800A60083120313690883160313A7008312F7
:100458000313620883160313A402831203136308A9
:10046800031C630F382A3B2A83160313A502831241
:1004780003136408031C640F422A452A83160313D6
:10048800A602831203136508031C650F4C2A4F2A22
:1004980083160313A7028312031383160313240876
:1004A800A00725080318250F5A2A5B2AA107260842
:1004B8000318260F602A612AA20727080318270AAB
:1004C800A307230883120313E500831603132208E6
:1004D80083120313E4008316031321088312031302
:1004E800E30083160313200883120313E20080300D
:1004F80083160313A000200883120313EA06ED09EC
:10050800ED0A6D08031D892A8A2AA72A0130E20705
:10051800003003180130E307003003180130E40706
:10052800003003180130E507A72A6608E2026708C9
:10053800031C670FE3026808031C680FE4026908DC
:10054800031C690FE5026508640463046204031D63
:10055800AE2AAF2AE32A6D08031DB32AB42AE32A78
:100568000030E5000030E4000030E3000030E20035
:10057800892B013083160313A00003108312031381
:10058800E20DE30DE40DE50D83160313A00BC12A5C
:1005980083120313ED1FD12AD22AD32A62146D1CA9
:1005A800D62AD72ADA2A0314ED0DDC2A0310ED0D1A
:1005B8006C080319E02AE12AE32A0130EC02E41F5F
:1005C800E62AE72ABD2AEB01ED1FEB2AEC2AFA2AD4
:1005D8006D087F390319F12AF22AF52AEB01EB0A93
:1005E800FA2A621CF82AF92AFA2AF22A6B0803194D
:1005F800FE2AFF2A532B0130E2070030031801308E
:10060800E307003003180130E40700300318013015
:10061800E507651C102B112B532B62088316031357
:10062800A00083120313630883160313A100831227
:100638000313640883160313A200831203136508C7
:1006480083160313A3000130A400230DA30CA20CEE
:10065800A10CA00CA40B292B230883120313E5007B
:1006680083160313220883120313E400831603136B
:10067800210883120313E30083160313200883124F
:100688000313E2006C0A03194A2B4B2B532B01303E
:1006980083160313A000200883120313EC076C0AC7
:1006A8000319572B582B5D2B6C08031D5C2B5D2BF6
:1006B8006B2B0030E5000030E4000030E300003030
:1006C800E2006C08031D692B6A2B6B2BEA016C1C7A
:1006D8006E2B6F2B712BE417792B7F308316031346
:1006E800A000200883120313E4056C088316031383
:1006F800A0000310200CA100210883120313E500B9
:10070800EA1F872B882B892BE51708008312031310
:100718004B088039D0005008D5004B08D00050074E
:10072800D1005108DB00CA1F9A2B9B2B9C2B5B1412
:100738005B080319A02BA12BB02B5B0A031DA52B6B
:10074800A62BAE2B0030CB000030CA000030C90009
:100758000030C800CA17B82B0030CB000030CA00E0
:100768000030C9000030C8004F088039D000500858
:10077800D5064F08D0005007D1005108DA00CE1F27
:10078800C62BC72BC82B5A145A080319CC2BCD2BB0
:10079800DC2B5A0A031DD12BD22BDA2B0030CF00C9
:1007A8000030CE000030CD000030CC00CE17E42B56
:1007B8000030CF000030CE000030CD000030CC003B
:1007C8005A080319E82BE92BEE2B5B08031DED2BC8
:1007D800EE2BF72B0030CB000030CA000030C900E8
:1007E8000030C800EA2E4808D0005008A0004E0883
:1007F8000A128A11D5270A128A11831203132108B3
:10080800E1002008E0006008D000D101D201D30146
:100818005308D9005208D8005108D7005008D6000C
:100828006108D000D101D201D3015308DF0052087A
:10083800DE005108DD005008DC004908D0005008EF
:10084800A0004D080A128A11D5270A128A118312AC
:1008580003132108E1002008E0006008D000D1015E
:10086800D201D3015008D607510803110318013EDD
:1008780003193F2CD707520803110318013E031927
:10088800462CD807530803110318013E03194D2CB1
:10089800D9076108D000D101D201D3015008DC0783
:1008A800510803110318013E03195B2CDD07520898
:1008B80003110318013E0319622CDE0753080311C4
:1008C8000318013E0319692CDF074A08D0005008B5
:1008D800A0004C080A128A11D5270A128A1183121D
:1008E80003132108E1002008E0006008D000D101CE
:1008F800D201D3015008D607510803110318013E4D
:100908000319872CD707520803110318013E03194E
:100918008E2CD807530803110318013E0319952C90
:10092800D9076108D000D101D201D3015008DC07F2
:10093800510803110318013E0319A32CDD075208BF
:1009480003110318013E0319AA2CDE0753080311EB
:100958000318013E0319B12CDF070830D00003103B
:10096800D60DD70DD80DD90DD00BB32C4908D00012
:100978005008A0004C080A128A11D5270A128A11B9
:10098800831203132108E1002008E0006008D0006A
:100998006108D100D201D3015008D60751080311CC
:1009A8000318013E0319D92CD7075208031103185D
:1009B800013E0319E02CD807530803110318013E20
:1009C8000319E72CD9074808D0005008A0004D08A3
:1009D8000A128A11D5270A128A11831203132108D1
:1009E800E1002008E0006008D0006108D100D201D1
:1009F800D3015008D607510803110318013E031903
:100A0800062DD707520803110318013E03190D2DAF
:100A1800D807530803110318013E0319142DD907E9
:100A28000830D0000310D60DD70DD80DD90DD00B36
:100A3800162D4808D0005008A0004C080A128A1148
:100A4800D5270A128A11831203132108E10020080E
:100A5800E0006008D0006108D100D201D30150083D
:100A6800D607510803110318013E03193C2DD70777
:100A7800520803110318013E0319432DD8075308E0
:100A880003110318013E03194A2DD9074908D0005C
:100A98005008A0004E080A128A11D5270A128A1196
:100AA800831203132108E1002008E0006008D00049
:100AB8006108D100D201D3015008DC0751080311A5
:100AC8000318013E0319692DDD07520803110318A5
:100AD800013E0319702DDE07530803110318013E68
:100AE8000319772DDF074A08D0005008A0004D08E9
:100AF8000A128A11D5270A128A11831203132108B0
:100B0800E1002008E0006008D0006108D100D201AF
:100B1800D3015008DC07510803110318013E0319DB
:100B2800962DDD07520803110318013E03199D2D68
:100B3800DE07530803110318013E0319A42DDF072C
:100B48004A08D0005008A0004E080A128A11D5277A
:100B58000A128A11831203132108E1002008E00019
:100B68006008D0006108D100D201D3010830031019
:100B7800D00DD10DD20DD30DFF3E031DBB2D500856
:100B8800DC07510803110318013E0319CC2DDD07BA
:100B9800520803110318013E0319D32DDE07530829
:100BA80003110318013E0319DA2DDF075608D00098
:100BB8005708D1005808D2005908D300183003103C
:100BC800D30CD20CD10CD00CFF3E031DE32D5008E2
:100BD800DC07510803110318013E0319F42DDD0742
:100BE800520803110318013E0319FB2DDE075308B1
:100BF80003110318013E0319022EDF070830D00045
:100C08000310D60DD70DD80DD90DD00B042E5B08C7
:100C18005A07D000D101D10D5008823EE00051089A
:100C28000318013EFF3EE100362E0130D0000310CC
:100C3800DC0DDD0DDE0DDF0DD00B1B2ED91F252E93
:100C4800262E272E5C140130D0000310D60DD70DA8
:100C5800D80DD90DD00B292EFF30E0070318E10A73
:100C6800FF30E107DE1F392E3A2E192EDA01D91F7F
:100C78003E2E3F2E5B2EFF305605D000FF30570525
:100C8800D100FF305805D2007F305905D3005308F2
:100C98005204510450040319522E532E562EDA01D1
:100CA800DA0A5B2E5C1C592E5A2E5B2E532E5A08DC
:100CB80003195F2E602E912E0130DC0700300318D7
:100CC8000130DD07003003180130DE07003003185B
:100CD8000130DF075F1C712E722E912E5C08D00048
:100CE8005D08D1005E08D2005F08D3000130D4004F
:100CF800530DD30CD20CD10CD00CD40B7C2E530832
:100D0800DF005208DE005108DD005008DC00013029
:100D1800E0070318E10A0030E1076108803AFF00A4
:100D280080307F02031D9A2EFF306002031C9D2E27
:100D38009E2EA92E7F3083120313DF008030DE0041
:100D48000030DD000030DC00DE2E83120313610862
:100D5800803AFF0080307F02031DB42E013060020C
:100D68000318B72EB82EC42E003083120313DF00E9
:100D78000030DE000030DD000030DC00D501DE2E62
:100D8800831203136008D0005008DB00FF30DC0535
:100D9800FF30DD057F30DE050030DF055B1CD52E1A
:100DA800D62ED72EDE175B08D0000310500CD100CA
:100DB8005108DF005508D0005008DF045F08CB0059
:100DC8005E08CA005D08C9005C08C80008008312F4
:100DD8000313BB002F30B3003308B600BE2F2530F5
:100DE8003C060319F82EF92E052F3C08B3003B08E2
:100DF80084003308831380000130B3003308BB0735
:100E0800BE2FB7010130AE07FF302E0784000A124B
:100E18008A150A200A128A11BC00B300B4013408EA
:100E2800003A0319182FBE2F3308003A0319D02FA0
:100E3800643A0319232F0D3A0319232FBE2F3608BE
:100E4800840083130008B900840A0008BA0002303D
:100E5800B3003308B607BA1F322F332F3C2F0330A5
:100E6800B3003308B704B909BA09B90A0319BA0AA9
:100E7800BC01BC0A3C08B3003307013E84000A12D7
:100E88008A150A200A128A11B4000A128A150A2041
:100E98000A128A11B50035083A02031D552F340885
:100EA80039020318582F592F5A2F642F0130B300D5
:100EB8003308BC0705303C06031D632F642F3E2F03
:100EC800370803390319692F6A2F752F2D30B3009E
:100ED8003B0884003308831380000130B3003308D3
:100EE800BB073C08B3003308B800B52F0A30A80088
:100EF8000030A9003808B3003307013E84000A1205
:100F08008A150A200A128A11A0000A128A150A20D4
:100F18000A128A11A1003A08A3003908A2000A1689
:100F28008A11BA270A128A11831203132108AB0007
:100F38002008AA000A168A11FB260A128A118312AF
:100F480003132808303EB4003408BC003C08B30042
:100F58003B0884003308831380000130B300330852
:100F6800BB07FF30B3003308B807380A031DBD2F8D
:100F7800BE2F7A2F0130AE07FF302E0784000A12E9
:100F88008A150A200A128A11B3003308BC003C08EB
:100F9800031DCF2FD02FF32E3B088400831380012D
:100FA800080083120313A800A401A5012008A200C9
:100FB800A3012208A6002308A700281CE42FE52F78
:100FC800EB2F2608A4070318A50A2708A507013050
:100FD8000310A60DA70DFF3E031DEC2F0310A80C50
:100FE8002808031DF82FF92FE12F2508A100240850
:040FF800A00008004D
:10100000FF1B0A2883137F1883170008840A03191B
:10101000FF0A080008308A000408840A82070034A6
:10102000013400340A34003464340034E8340334C6
:101030001034273450344F34543445344E34433410
:1010400049344F344D344534543452344F342034C1
:101050003134003450344F34543445344E344334F6
:1010600049344F344D344534543452344F342034A1
:10107000323400344A344F34533445342034473406
:101080004F344E345A3441344C3445345A3420347D
:1010900000344334413452344E3445343A342034ED
:1010A0003234303431343934343400342534643417
:0A10B0002E34253464345634003425
:1010BE00831603138801870183160317890183168C
:1010CE000313860183120313860102300A168A1156
:1010DE0070260A128A1583120313A001A101013092
:1010EE000A128A1597200A128A15831203130C13FB
:1010FE00831603130C170B178B178C168B160A16E9
:10110E008A1152260A128A15003083120313A00088
:10111E000130A1000A128A15EC210A128A15080064
:10112E0083120313A400AB283F309F05C1281F086C
:10113E003F3940389F00C1281F083F3980389F0033
:10114E00C128C0309F04C1282408A200A30123088F
:10115E00003A0319B328C1282208003A03199B2824
:10116E00013A03199E28033A0319A328013A0319D9
:10117E00A828C128200C83160313031C1F12031862
:10118E001F1683120313210C83160313031C9F12C5
:10119E0003189F16C330831203139F058316031380
:1011AE009F13831203131F140C3083120313A20018
:1011BE00A20BDF28000008000B1DE628E7280529F2
:1011CE000130F4007408FA0764307A06031DF02823
:1011DE00F12800297803031DF528F628F828F801D0
:1011EE00FF287808031DFC28FD28FF28F801F80ABF
:1011FE00FA010A168A114C260A128A158312031353
:10120E000C1F0A290B292D297908031D0F291029D6
:10121E001C290A168A1158260A128A157008F4001B
:10122E00740883160313C6002D297903031D202984
:10123E0021292D290A168A1158260A128A15700894
:10124E00F400740883160313C5002D2976088A004E
:10125E00750E8300FE0E7E0E090083120313A70087
:10126E002703031D3B293C29612924087F3EA50045
:10127E002508AA002A08A50004300310A50CFF3E7D
:10128E00031D44292508A6002608A8002A080F39A0
:10129E00A5002508A90028080A168A119B260A12FD
:1012AE008A158312031329080A168A119B260A121D
:1012BE008A158B2902302706031D662967298B297B
:1012CE002408BF3EA5002508AA002A08A500043060
:1012DE000310A50CFF3E031D6F292508A600260846
:1012EE00A8002A080F39A5002508A90028080A1603
:1012FE008A119B260A128A158312031329080A16CD
:10130E008A119B260A128A15080000300A168A11C5
:10131E00B7260A128A151A3083120313A500F73066
:10132E00A400A40B9829A50B98299D2903300A1611
:10133E008A119B260A128A15073083120313A50001
:10134E007C30A400A40BA929A50BA9290000033009
:10135E000A168A119B260A128A150230831203136B
:10136E00A400A40BB829BB2903300A168A119B26A8
:10137E000A128A1502300A168A119B260A128A153B
:10138E0002300A168A119B260A128A1508300A168E
:10139E008A119B260A128A1500300A168A119B267C
:1013AE000A128A150C300A168A119B260A128A1501
:1013BE0000300A168A119B260A128A1506300A1662
:1013CE008A119B260A128A150800831603138112AE
:1013DE008111252AF8308316031381054B2A8316B3
:1013EE0003130108F839013881004B2A83160313C1
:1013FE000108F839023881004B2A831603130108BD
:10140E00F839033881004B2A831603130108F83983
:10141E00043881004B2A831603130108F839053866
:10142E0081004B2A831603130108F8390638810010
:10143E004B2A07308316031381044B2A831203139E
:10144E002108003A03192F2A013A0319462A4B2A7A
:10145E002008023A0319F129063A0319F6290C3A23
:10146E000319FD29183A0319042A303A03190B2AD5
:10147E00603A0319122AC03A0319192A4B2A200876
:10148E00003A0319202A4B2A3D30831281000B119A
:10149E0008000310831603132A0D2B0DAC002C0825
:1014AE0083120313EF006F08031D5E2A5F2A6A2A58
:1014BE00003083160313AB000030AA000030A900E1
:1014CE000030A800E12A831603132808AC0029086F
:1014DE00AD002A08AE002B08AF001F300310AF0C72
:1014EE00AE0CAD0CAC0CFF3E031D752A2C08B000E3
:1014FE00300883120313EE0083160313AA17FF306E
:10150E00A805FF30A905FF30AA050030AB059630BF
:10151E0083120313EF02EF1F952A962AB42A6F083F
:10152E00803A973E03189C2A9D2A9E2A5F2A0130F4
:10153E00031083160313AB0CAA0CA90CA80CFF3EC8
:10154E00031D9F2A0130AC002C0883120313EF07F2
:10155E00031DB22AB32A9E2ACF2A20306F02031C03
:10156E00B92ABA2ACA2A5F2A013083160313AC009D
:10157E000310A80DA90DAA0DAB0DAC0BBF2A01309F
:10158E0083120313EF026F08031DCE2ACF2ABB2A44
:10159E006E080319D32AD42AE12A83160313A80945
:1015AE00A909AA09AB09A80A0319A90A0319AA0AC3
:1015BE000319AB0A080083120313A80028080319A5
:1015CE00E92AEA2AFE2AA31FED2AEE2AFE2A20097C
:1015DE00AA002109AB002209AC002309AD00AA0A1A
:1015EE000319AB0A0319AC0A0319AD0A062B23081B
:1015FE00AD002208AC002108AB002008AA00230889
:10160E00220421042004031D0D2B0E2B172B00305A
:10161E00A3000030A2000030A1000030A0009D2BDE
:10162E009630A4002408A900292B0130A400240818
:10163E00A90701300310AD0CAC0CAB0CAA0CFF3E8D
:10164E00031D212BFE302D05031D2E2B2F2B1C2BA6
:10165E004B2B0130A4002408A9070130AA07003043
:10166E0003180130AB07003003180130AC0700300F
:10167E0003180130AD0701300310AD0CAC0CAB0CF0
:10168E00AA0CFF3E031D432BFF302D05031D502BCF
:10169E00512B302B5D2B0130A9020130A400031019
:1016AE00AA0DAB0DAC0DAD0DA40B562BAC1B602BC8
:1016BE00612B672B023029020318662B672B522BE6
:1016CE0029186A2B6B2B732BFF30AA05FF30AB0545
:1016DE007F30AC05FF30AD050310A90C2908A4001E
:1016EE00A501A601A70118300310A40DA50DA60D86
:1016FE00A70DFF3E031D7B2B2408AA042508AB046F
:10170E002608AC042708AD04280803198F2B902B4C
:10171E00952BA31F932B942B952BAD172D08A30060
:10172E002C08A2002B08A1002A08A000080083168E
:10173E000313B700330883120313A0008316031399
:10174E00340883120313A100A201A30100300A1270
:10175E008A15E2220A128A15831203132308E9005E
:10176E002208E8002108E7002008E600831603138C
:10177E003308350283120313A000831603133408B3
:10178E00031C340A360283120313A100A201A30123
:10179E0000300A128A15E2220A128A1583120313E6
:1017AE002308B5002208B4002108B3002008B200B7
:1017BE00831603133108320283120313A000A10112
:1017CE00031CA103A201A11BA2032208A300013046
:1017DE000A128A15E2220A128A15831203132308AB
:1017EE00B1002208B0002108AF002008AE000A1296
:1017FE008A1523260A128A15831203133108CF0085
:10180E003008CE002F08CD002E08CC00831603130F
:10181E003108370283120313A000A101031CA10398
:10182E00A201A11BA2032208A30001300A128A15ED
:10183E00E2220A128A15831203132308CB00220810
:10184E00CA002108C9002008C8000A128A118A237A
:10185E000A128A15831203134B08E5004A08E400A6
:10186E004908E3004808E2000A128A1124200A12ED
:10187E008A1583120313650883160313AB008312B4
:10188E000313640883160313AA0083120313630859
:10189E0083160313A900831203136208831603131E
:1018AE00A8000A128A1550220A128A1583160313EB
:1018BE002908B2002808B10008000A128A155F2014
:1018CE000A128A150A128A158C210A128A150A160C
:1018DE008A1163260A128A1583120313A401A40A1D
:1018EE0001300A128A1534210A128A152B308312FE
:1018FE000313A5008030A6000A168A1174270A1257
:10190E008A1583120313A401A40A02300A128A153F
:10191E0034210A128A153A3083120313A50080303F
:10192E00A6000A168A1174270A128A150B3083161E
:10193E000313BA002630B9005D30B800B80BA52CE1
:10194E00B90BA52CBA0BA52C7908031DAF2CB02C06
:10195E00062D79080A168A11D7260A128A15F90158
:10196E00F90A83160313B101FF30B8003808B2002C
:10197E000030B300B400F430B5000130B6004608B4
:10198E000A128A159E230A128A1583160313320829
:10199E00C0003108BF00643083120313A000003072
:1019AE00A10083160313400883120313A3008316AA
:1019BE0003133F0883120313A2000A168A11BA27D3
:1019CE000A128A1583120313200883160313B80014
:1019DE003808C4009C30B800380883120313A000E6
:1019EE008316031344080A168A1184260A128A15CE
:1019FE00831603133F07B9003908C3005F2D79031F
:101A0E00031D0A2D0B2D5F2D79080A168A11D72674
:101A1E000A128A15F90183160313B101FF30B800BB
:101A2E003808B2000030B300B400F430B500013015
:101A3E00B60045080A128A159E230A128A158316C5
:101A4E0003133208BE003108BD0064308312031345
:101A5E00A0000030A100831603133E088312031367
:101A6E00A300831603133D0883120313A2000A1664
:101A7E008A11BA270A128A158312031320088316B5
:101A8E000313B8003808C2009C30B800380883121F
:101A9E000313A0008316031342080A168A11842624
:101AAE000A128A15831603133D07B9003908C100BF
:101ABE007803031D632D642DC52D83120313A4011A
:101ACE00A40A01300A128A1534210A128A150B3023
:101ADE0083120313A5008030A6000A168A117427FC
:101AEE000A128A1583120313A401A40A02300A12E1
:101AFE008A1534210A128A15473083160313B8004B
:101B0E00380883120313AE00831603134408B9007A
:101B1E00BA01390883120313AF00831603133A0870
:101B2E0083120313B000831603134308BB00BC01DA
:101B3E003B0883120313B100831603133C08831270
:101B4E000313B200C7300A128A11EB260A128A1545
:101B5E0083120313A401A40A02300A128A15342137
:101B6E000A128A15C73083120313A5000030A6008F
:101B7E000A168A1174270A128A15AB2C7808031DCF
:101B8E00C92DCA2DAB2C83120313A401A40A013054
:101B9E000A128A1534210A128A151B308312031376
:101BAE00A5008030A6000A168A1174270A128A151B
:101BBE0083120313A401A40A02300A128A153421D7
:101BCE000A128A15473083160313B8003808831299
:101BDE000313AE00831603134208B900BA01390885
:101BEE0083120313AF00831603133A0883120313F1
:101BFE00B000831603134108BB00BC013B088312DF
:101C0E000313B100831603133C0883120313B200AF
:101C1E00C7300A128A11EB260A128A158312031391
:101C2E00A401A40A02300A128A1534210A128A1556
:101C3E00B92D0A128A110C28831203133508803924
:101C4E00B6003608BF003508B6003607B7003708AD
:101C5E00C600B41F332E342E352E461446080319F3
:101C6E00392E3A2E4A2E460A031D3E2E3F2E472E61
:101C7E000030B5000030B4000030B3000030B200C8
:101C8E00B417B501522E0030B5000030B40000304C
:101C9E00B3000030B20031088039B6003608BF06F6
:101CAE003108B6003607B7003708C700B01F602EE0
:101CBE00612E622E471447080319662E672E772E63
:101CCE00470A031D6B2E6C2E742E0030B1000030AF
:101CDE00B0000030AF000030AE00B017B1017F2E63
:101CEE000030B1000030B0000030AF000030AE0068
:101CFE00310830042F042E04031D862E872EA02EAD
:101D0E000030B5000030B4000030B3000030B20037
:101D1E008030B4047F30B5043F08B6003608B504F1
:101D2E003508B1003408B0003308AF003208AE00F9
:101D3E00FF2F4608031DA42EA52EAE2E0030B10097
:101D4E000030B0000030AF000030AE00FF2F46086C
:101D5E00B600B7013708B90047083602B800031CB1
:101D6E00B90338087F3EC00039080318013E003E13
:101D7E00C1003508BE003408BD003308BC0032086F
:101D8E00BB000030B5000030B4000030B3000030AE
:101D9E00B2000030C5000030C4000030C300003077
:101DAE00C200C701242F47080319DE2EDF2EFF2E97
:101DBE000130B6000310BB0DBC0DBD0DBE0DB60B34
:101DCE00E12E0130B6000310B20DB30DB40DB50DFA
:101DDE00B60BEA2EC51FF42EF52EF62E3214013058
:101DEE00B6000310C20DC30DC40DC50DB60BF82EF3
:101DFE0031083E02031D0D2F30083D02031D0D2F2D
:101E0E002F083C02031D0D2F2E083B02031C102F22
:101E1E00112F202F45172E08BB022F08031C2F0F42
:101E2E00BC023008031C300FBD023108031C310FF9
:101E3E00BE020130B6003608C7071A304702031C2F
:101E4E00292F2A2FDA2E3E083D043C043B040319A9
:101E5E00312F322F512F4214512F0130B600031063
:101E6E00B20DB30DB40DB50DB60B362FC51F402FE9
:101E7E00412F422F32140130B6000310C20DC30D94
:101E8E00C40DC50DB60B442FFF30C0070318C10A91
:101E9E00FF30C107B41F542F552F342FC701C51F54
:101EAE00592F5A2F762FFF304205B600FF304305CB
:101EBE00B700FF304405B8007F304505B90039083A
:101ECE0038043704360403196D2F6E2F712FC70196
:101EDE00C70A762F321C742F752F762F6E2F470858
:101EEE0003197A2F7B2FAC2F0130B2070030031865
:101EFE000130B307003003180130B4070030031867
:101F0E000130B507351C8C2F8D2FAC2F3208B60043
:101F1E003308B7003408B8003508B9000130BA00EC
:101F2E00390DB90CB80CB70CB60CBA0B972F390883
:101F3E00B5003808B4003708B3003608B2000130D7
:101F4E00C0070318C10A0030C1074108803AFF00DC
:101F5E0080307F02031DB52FFF304002031CB82FC7
:101F6E00B92FC72FFF3083120313C0000030C100FA
:101F7E000030B5000030B4000030B3000030B200C5
:101F8E00831203134108803AFF0080307F02031D45
:101F9E00D22F013040020318D52FD62FE32F8312F4
:101FAE000313C001C1010030B5000030B400003091
:101FBE00B3000030B200BF01831203134008B60015
:101FCE003608C600461CEC2FED2FEF2FB417F32F5B
:101FDE007F30B6003608B4054608B6000310360C3E
:101FEE00B7003708B5003F08B6003608B504972E7F
:021FFE000800D9
:102C98003D308312031381000B1108003D3083126D
:102CA800031381000B110800831203130C131E0871
:102CB800F200F3017208F0007308F1000800003018
:102CC8000A168A119B260A168A1101300A168A11D9
:102CD8009B260A168A11080083120313A1002108F3
:102CE8000739A000A00E831603130F0883120313DD
:102CF80020068F392006831603138F000F1408004F
:102D080083120313A300A201231C8B2E8C2E902E5A
:102D18002008A1002108A2070310A00D0310A30C8E
:102D28002308031D982E992E882E22080800831246
:102D38000313A300071323080A168A11B7260A16D5
:102D48008A11831203138717063083120313A20014
:102D58002F30A100A10BAE2EA20BAE2EB32E8312E4
:102D680003138713080083120313A000201CBD2E31
:102D7800BE2EC02E0816C12E0812A01CC42EC52EA9
:102D8800C72E8816C82E8812201DCB2ECC2ECE2EEC
:102D98000817CF2E0813A01DD22ED32ED52E881794
:102DA800D62E8813080083120313A1000E302102C7
:102DB8000318DF2EE02EEA2E2108A000A00DA00D9A
:102DC8001F082006C33920069F00EC2EC3309F053C
:102DD8000C3083120313A000A00BF02E0000831206
:102DE80003139F149F18F92EFA2EF62E080083124B
:102DF8000313280829040319022F032F322FAD01CA
:102E0800AD0A112F01300310A80DA90DFF3E031DB7
:102E1800072F0130AC002C08AD07A91F142F152F60
:102E2800062F29082B02031D1B2F28082A02031C22
:102E38001E2F1F2F252F2808AA022908031CAB03C1
:102E4800AB0201300310A90CA80CFF3E031D262F6E
:102E58000130AD02031D312F322F152F2B08A90089
:102E68002A08A800080083120313A40024080F39B5
:102E7800A1002108A2002408F039A1002108A3001C
:102E880007172308A10004300310A10CFF3E031DFF
:102E9800482F21080A168A11B7260A168A118312A2
:102EA800031387170C3083120313A100A10B5A2FA9
:102EB800000083120313871322080A168A11B72603
:102EC8000A168A118312031387170C30831203130F
:102ED800A100A10B6D2F00008312031387130800B4
:102EE80083120313AA01AB019D2F2A082507A80006
:102EF8002608A7000318A70AAA1F832FA70383126F
:102F080003132708A9002908FF00280884000A12CB
:102F18008A1500200A168A110A168A1137270A16F6
:102F28008A11013083120313AA070318AB0A003071
:102F3800AB072A082507A8002608A7000318A70A30
:102F4800AA1FA72FA703831203132708A90029087C
:102F5800FF00280884000A128A1500200A168A1120
:102F6800003A031DB82FB92F792F080083120313D5
:102F7800A501A601200821040319C32FC42FFB2F84
:102F8800A701A70AD22F01300310A00DA10DFF3E03
:102F9800031DC82F0130A4002408A707A11FD52F9F
:102FA800D62FC72F01300310A50DA60DFF3E031D18
:102FB800D72F21082302031DE32F20082202031C18
:102FC800E62FE72FEE2F2008A2022108031CA303F7
:102FD800A302251401300310A10CA00CFF3E031D11
:102FE800EF2F0130A702031DFA2FFB2FD62F26083B
:082FF800A1002508A00008005B
:08400000FF3FFF3FFF3FFF3FC0
:04400E00D420FF3F7C
:00000001FF
